{"abi":[{"type":"constructor","inputs":[],"stateMutability":"nonpayable"},{"type":"function","name":"approve","inputs":[{"name":"to","type":"address","internalType":"address"},{"name":"tokenId","type":"uint256","internalType":"uint256"}],"outputs":[],"stateMutability":"nonpayable"},{"type":"function","name":"balanceOf","inputs":[{"name":"owner","type":"address","internalType":"address"}],"outputs":[{"name":"","type":"uint256","internalType":"uint256"}],"stateMutability":"view"},{"type":"function","name":"getApproved","inputs":[{"name":"tokenId","type":"uint256","internalType":"uint256"}],"outputs":[{"name":"","type":"address","internalType":"address"}],"stateMutability":"view"},{"type":"function","name":"getTokenCounter","inputs":[],"outputs":[{"name":"","type":"uint256","internalType":"uint256"}],"stateMutability":"view"},{"type":"function","name":"isApprovedForAll","inputs":[{"name":"owner","type":"address","internalType":"address"},{"name":"operator","type":"address","internalType":"address"}],"outputs":[{"name":"","type":"bool","internalType":"bool"}],"stateMutability":"view"},{"type":"function","name":"mintNft","inputs":[{"name":"tokenUri","type":"string","internalType":"string"}],"outputs":[],"stateMutability":"nonpayable"},{"type":"function","name":"name","inputs":[],"outputs":[{"name":"","type":"string","internalType":"string"}],"stateMutability":"view"},{"type":"function","name":"ownerOf","inputs":[{"name":"tokenId","type":"uint256","internalType":"uint256"}],"outputs":[{"name":"","type":"address","internalType":"address"}],"stateMutability":"view"},{"type":"function","name":"safeTransferFrom","inputs":[{"name":"from","type":"address","internalType":"address"},{"name":"to","type":"address","internalType":"address"},{"name":"tokenId","type":"uint256","internalType":"uint256"}],"outputs":[],"stateMutability":"nonpayable"},{"type":"function","name":"safeTransferFrom","inputs":[{"name":"from","type":"address","internalType":"address"},{"name":"to","type":"address","internalType":"address"},{"name":"tokenId","type":"uint256","internalType":"uint256"},{"name":"data","type":"bytes","internalType":"bytes"}],"outputs":[],"stateMutability":"nonpayable"},{"type":"function","name":"setApprovalForAll","inputs":[{"name":"operator","type":"address","internalType":"address"},{"name":"approved","type":"bool","internalType":"bool"}],"outputs":[],"stateMutability":"nonpayable"},{"type":"function","name":"supportsInterface","inputs":[{"name":"interfaceId","type":"bytes4","internalType":"bytes4"}],"outputs":[{"name":"","type":"bool","internalType":"bool"}],"stateMutability":"view"},{"type":"function","name":"symbol","inputs":[],"outputs":[{"name":"","type":"string","internalType":"string"}],"stateMutability":"view"},{"type":"function","name":"tokenURI","inputs":[{"name":"tokenId","type":"uint256","internalType":"uint256"}],"outputs":[{"name":"","type":"string","internalType":"string"}],"stateMutability":"view"},{"type":"function","name":"transferFrom","inputs":[{"name":"from","type":"address","internalType":"address"},{"name":"to","type":"address","internalType":"address"},{"name":"tokenId","type":"uint256","internalType":"uint256"}],"outputs":[],"stateMutability":"nonpayable"},{"type":"event","name":"Approval","inputs":[{"name":"owner","type":"address","indexed":true,"internalType":"address"},{"name":"approved","type":"address","indexed":true,"internalType":"address"},{"name":"tokenId","type":"uint256","indexed":true,"internalType":"uint256"}],"anonymous":false},{"type":"event","name":"ApprovalForAll","inputs":[{"name":"owner","type":"address","indexed":true,"internalType":"address"},{"name":"operator","type":"address","indexed":true,"internalType":"address"},{"name":"approved","type":"bool","indexed":false,"internalType":"bool"}],"anonymous":false},{"type":"event","name":"Transfer","inputs":[{"name":"from","type":"address","indexed":true,"internalType":"address"},{"name":"to","type":"address","indexed":true,"internalType":"address"},{"name":"tokenId","type":"uint256","indexed":true,"internalType":"uint256"}],"anonymous":false},{"type":"error","name":"BasicNft__TokenUriNotFound","inputs":[]},{"type":"error","name":"ERC721IncorrectOwner","inputs":[{"name":"sender","type":"address","internalType":"address"},{"name":"tokenId","type":"uint256","internalType":"uint256"},{"name":"owner","type":"address","internalType":"address"}]},{"type":"error","name":"ERC721InsufficientApproval","inputs":[{"name":"operator","type":"address","internalType":"address"},{"name":"tokenId","type":"uint256","internalType":"uint256"}]},{"type":"error","name":"ERC721InvalidApprover","inputs":[{"name":"approver","type":"address","internalType":"address"}]},{"type":"error","name":"ERC721InvalidOperator","inputs":[{"name":"operator","type":"address","internalType":"address"}]},{"type":"error","name":"ERC721InvalidOwner","inputs":[{"name":"owner","type":"address","internalType":"address"}]},{"type":"error","name":"ERC721InvalidReceiver","inputs":[{"name":"receiver","type":"address","internalType":"address"}]},{"type":"error","name":"ERC721InvalidSender","inputs":[{"name":"sender","type":"address","internalType":"address"}]},{"type":"error","name":"ERC721NonexistentToken","inputs":[{"name":"tokenId","type":"uint256","internalType":"uint256"}]}],"bytecode":{"object":"0x608060405234801561001057600080fd5b5060405180604001604052806005815260200164446f67696560d81b81525060405180604001604052806003815260200162444f4760e81b815250816000908161005a9190610113565b5060016100678282610113565b50506000600755506101d1565b634e487b7160e01b600052604160045260246000fd5b600181811c9082168061009e57607f821691505b6020821081036100be57634e487b7160e01b600052602260045260246000fd5b50919050565b601f82111561010e57806000526020600020601f840160051c810160208510156100eb5750805b601f840160051c820191505b8181101561010b57600081556001016100f7565b50505b505050565b81516001600160401b0381111561012c5761012c610074565b6101408161013a845461008a565b846100c4565b6020601f821160018114610174576000831561015c5750848201515b600019600385901b1c1916600184901b17845561010b565b600084815260208120601f198516915b828110156101a45787850151825560209485019460019092019101610184565b50848210156101c25786840151600019600387901b60f8161c191681555b50505050600190811b01905550565b611037806101e06000396000f3fe608060405234801561001057600080fd5b50600436106100f55760003560e01c80636e02007d11610097578063b88d4fde11610066578063b88d4fde146101f0578063c87b56dd14610203578063da86f4a914610216578063e985e9c51461022957600080fd5b80636e02007d146101b057806370a08231146101c257806395d89b41146101d5578063a22cb465146101dd57600080fd5b8063095ea7b3116100d3578063095ea7b31461016257806323b872dd1461017757806342842e0e1461018a5780636352211e1461019d57600080fd5b806301ffc9a7146100fa57806306fdde0314610122578063081812fc14610137575b600080fd5b61010d610108366004610b4e565b61023c565b60405190151581526020015b60405180910390f35b61012a61028e565b6040516101199190610bb8565b61014a610145366004610bcb565b610320565b6040516001600160a01b039091168152602001610119565b610175610170366004610c00565b610349565b005b610175610185366004610c2a565b610358565b610175610198366004610c2a565b6103e8565b61014a6101ab366004610bcb565b610408565b6007545b604051908152602001610119565b6101b46101d0366004610c67565b610413565b61012a61045b565b6101756101eb366004610c82565b61046a565b6101756101fe366004610d4e565b610475565b61012a610211366004610bcb565b61048c565b610175610224366004610dca565b61055e565b61010d610237366004610e13565b61059a565b60006001600160e01b031982166380ac58cd60e01b148061026d57506001600160e01b03198216635b5e139f60e01b145b8061028857506301ffc9a760e01b6001600160e01b03198316145b92915050565b60606000805461029d90610e46565b80601f01602080910402602001604051908101604052809291908181526020018280546102c990610e46565b80156103165780601f106102eb57610100808354040283529160200191610316565b820191906000526020600020905b8154815290600101906020018083116102f957829003601f168201915b5050505050905090565b600061032b826105c8565b506000828152600460205260409020546001600160a01b0316610288565b610354828233610601565b5050565b6001600160a01b03821661038757604051633250574960e11b8152600060048201526024015b60405180910390fd5b600061039483833361060e565b9050836001600160a01b0316816001600160a01b0316146103e2576040516364283d7b60e01b81526001600160a01b038086166004830152602482018490528216604482015260640161037e565b50505050565b61040383838360405180602001604052806000815250610475565b505050565b6000610288826105c8565b60006001600160a01b03821661043f576040516322718ad960e21b81526000600482015260240161037e565b506001600160a01b031660009081526003602052604090205490565b60606001805461029d90610e46565b610354338383610707565b610480848484610358565b6103e2848484846107a6565b6060600061049983610408565b6001600160a01b0316036104c057604051637598996f60e01b815260040160405180910390fd5b600082815260066020526040902080546104d990610e46565b80601f016020809104026020016040519081016040528092919081815260200182805461050590610e46565b80156105525780601f1061052757610100808354040283529160200191610552565b820191906000526020600020905b81548152906001019060200180831161053557829003601f168201915b50505050509050919050565b60075460009081526006602052604090206105798282610ec7565b50610586336007546108cf565b600754610594906001610f86565b60075550565b6001600160a01b03918216600090815260056020908152604080832093909416825291909152205460ff1690565b6000818152600260205260408120546001600160a01b03168061028857604051637e27328960e01b81526004810184905260240161037e565b61040383838360016108e9565b6000828152600260205260408120546001600160a01b039081169083161561063b5761063b8184866109ef565b6001600160a01b03811615610679576106586000856000806108e9565b6001600160a01b038116600090815260036020526040902080546000190190555b6001600160a01b038516156106a8576001600160a01b0385166000908152600360205260409020805460010190555b60008481526002602052604080822080546001600160a01b0319166001600160a01b0389811691821790925591518793918516917fddf252ad1be2c89b69c2b068fc378daa952ba7f163c4a11628f55a4df523b3ef91a4949350505050565b6001600160a01b03821661073957604051630b61174360e31b81526001600160a01b038316600482015260240161037e565b6001600160a01b03838116600081815260056020908152604080832094871680845294825291829020805460ff191686151590811790915591519182527f17307eab39ab6107e8899845ad3d59bd9653f200f220920489ca2b5937696c31910160405180910390a3505050565b6001600160a01b0383163b156103e257604051630a85bd0160e11b81526001600160a01b0384169063150b7a02906107e8903390889087908790600401610fa7565b6020604051808303816000875af1925050508015610823575060408051601f3d908101601f1916820190925261082091810190610fe4565b60015b61088c573d808015610851576040519150601f19603f3d011682016040523d82523d6000602084013e610856565b606091505b50805160000361088457604051633250574960e11b81526001600160a01b038516600482015260240161037e565b805181602001fd5b6001600160e01b03198116630a85bd0160e11b146108c857604051633250574960e11b81526001600160a01b038516600482015260240161037e565b5050505050565b610354828260405180602001604052806000815250610a53565b80806108fd57506001600160a01b03821615155b156109bf57600061090d846105c8565b90506001600160a01b038316158015906109395750826001600160a01b0316816001600160a01b031614155b801561094c575061094a818461059a565b155b156109755760405163a9fbf51f60e01b81526001600160a01b038416600482015260240161037e565b81156109bd5783856001600160a01b0316826001600160a01b03167f8c5be1e5ebec7d5bd14f71427d1e84f3dd0314c0f7b2291e5b200ac8c7c3b92560405160405180910390a45b505b5050600090815260046020526040902080546001600160a01b0319166001600160a01b0392909216919091179055565b6109fa838383610a6a565b610403576001600160a01b038316610a2857604051637e27328960e01b81526004810182905260240161037e565b60405163177e802f60e01b81526001600160a01b03831660048201526024810182905260440161037e565b610a5d8383610ad0565b61040360008484846107a6565b60006001600160a01b03831615801590610ac85750826001600160a01b0316846001600160a01b03161480610aa45750610aa4848461059a565b80610ac857506000828152600460205260409020546001600160a01b038481169116145b949350505050565b6001600160a01b038216610afa57604051633250574960e11b81526000600482015260240161037e565b6000610b088383600061060e565b90506001600160a01b03811615610403576040516339e3563760e11b81526000600482015260240161037e565b6001600160e01b031981168114610b4b57600080fd5b50565b600060208284031215610b6057600080fd5b8135610b6b81610b35565b9392505050565b6000815180845260005b81811015610b9857602081850181015186830182015201610b7c565b506000602082860101526020601f19601f83011685010191505092915050565b602081526000610b6b6020830184610b72565b600060208284031215610bdd57600080fd5b5035919050565b80356001600160a01b0381168114610bfb57600080fd5b919050565b60008060408385031215610c1357600080fd5b610c1c83610be4565b946020939093013593505050565b600080600060608486031215610c3f57600080fd5b610c4884610be4565b9250610c5660208501610be4565b929592945050506040919091013590565b600060208284031215610c7957600080fd5b610b6b82610be4565b60008060408385031215610c9557600080fd5b610c9e83610be4565b915060208301358015158114610cb357600080fd5b809150509250929050565b634e487b7160e01b600052604160045260246000fd5b60008067ffffffffffffffff841115610cef57610cef610cbe565b50604051601f19601f85018116603f0116810181811067ffffffffffffffff82111715610d1e57610d1e610cbe565b604052838152905080828401851015610d3657600080fd5b83836020830137600060208583010152509392505050565b60008060008060808587031215610d6457600080fd5b610d6d85610be4565b9350610d7b60208601610be4565b925060408501359150606085013567ffffffffffffffff811115610d9e57600080fd5b8501601f81018713610daf57600080fd5b610dbe87823560208401610cd4565b91505092959194509250565b600060208284031215610ddc57600080fd5b813567ffffffffffffffff811115610df357600080fd5b8201601f81018413610e0457600080fd5b610ac884823560208401610cd4565b60008060408385031215610e2657600080fd5b610e2f83610be4565b9150610e3d60208401610be4565b90509250929050565b600181811c90821680610e5a57607f821691505b602082108103610e7a57634e487b7160e01b600052602260045260246000fd5b50919050565b601f82111561040357806000526020600020601f840160051c81016020851015610ea75750805b601f840160051c820191505b818110156108c85760008155600101610eb3565b815167ffffffffffffffff811115610ee157610ee1610cbe565b610ef581610eef8454610e46565b84610e80565b6020601f821160018114610f295760008315610f115750848201515b600019600385901b1c1916600184901b1784556108c8565b600084815260208120601f198516915b82811015610f595787850151825560209485019460019092019101610f39565b5084821015610f775786840151600019600387901b60f8161c191681555b50505050600190811b01905550565b8082018082111561028857634e487b7160e01b600052601160045260246000fd5b6001600160a01b0385811682528416602082015260408101839052608060608201819052600090610fda90830184610b72565b9695505050505050565b600060208284031215610ff657600080fd5b8151610b6b81610b3556fea26469706673582212202a8ecacd6c71b96c9b7512c471b5e4fcbb02a8e06a2d7c99ddb9f2e46c3c193a64736f6c634300081c0033","linkReferences":{}},"methodIdentifiers":{"approve(address,uint256)":"095ea7b3","balanceOf(address)":"70a08231","getApproved(uint256)":"081812fc","getTokenCounter()":"6e02007d","isApprovedForAll(address,address)":"e985e9c5","mintNft(string)":"da86f4a9","name()":"06fdde03","ownerOf(uint256)":"6352211e","safeTransferFrom(address,address,uint256)":"42842e0e","safeTransferFrom(address,address,uint256,bytes)":"b88d4fde","setApprovalForAll(address,bool)":"a22cb465","supportsInterface(bytes4)":"01ffc9a7","symbol()":"95d89b41","tokenURI(uint256)":"c87b56dd","transferFrom(address,address,uint256)":"23b872dd"},"id":11}