{"abi":[{"type":"constructor","inputs":[],"stateMutability":"nonpayable"},{"type":"function","name":"approve","inputs":[{"name":"to","type":"address","internalType":"address"},{"name":"tokenId","type":"uint256","internalType":"uint256"}],"outputs":[],"stateMutability":"nonpayable"},{"type":"function","name":"balanceOf","inputs":[{"name":"owner","type":"address","internalType":"address"}],"outputs":[{"name":"","type":"uint256","internalType":"uint256"}],"stateMutability":"view"},{"type":"function","name":"getApproved","inputs":[{"name":"tokenId","type":"uint256","internalType":"uint256"}],"outputs":[{"name":"","type":"address","internalType":"address"}],"stateMutability":"view"},{"type":"function","name":"getTokenCounter","inputs":[],"outputs":[{"name":"","type":"uint256","internalType":"uint256"}],"stateMutability":"view"},{"type":"function","name":"isApprovedForAll","inputs":[{"name":"owner","type":"address","internalType":"address"},{"name":"operator","type":"address","internalType":"address"}],"outputs":[{"name":"","type":"bool","internalType":"bool"}],"stateMutability":"view"},{"type":"function","name":"mintNft","inputs":[{"name":"tokenUri","type":"string","internalType":"string"}],"outputs":[],"stateMutability":"nonpayable"},{"type":"function","name":"name","inputs":[],"outputs":[{"name":"","type":"string","internalType":"string"}],"stateMutability":"view"},{"type":"function","name":"ownerOf","inputs":[{"name":"tokenId","type":"uint256","internalType":"uint256"}],"outputs":[{"name":"","type":"address","internalType":"address"}],"stateMutability":"view"},{"type":"function","name":"safeTransferFrom","inputs":[{"name":"from","type":"address","internalType":"address"},{"name":"to","type":"address","internalType":"address"},{"name":"tokenId","type":"uint256","internalType":"uint256"}],"outputs":[],"stateMutability":"nonpayable"},{"type":"function","name":"safeTransferFrom","inputs":[{"name":"from","type":"address","internalType":"address"},{"name":"to","type":"address","internalType":"address"},{"name":"tokenId","type":"uint256","internalType":"uint256"},{"name":"data","type":"bytes","internalType":"bytes"}],"outputs":[],"stateMutability":"nonpayable"},{"type":"function","name":"setApprovalForAll","inputs":[{"name":"operator","type":"address","internalType":"address"},{"name":"approved","type":"bool","internalType":"bool"}],"outputs":[],"stateMutability":"nonpayable"},{"type":"function","name":"supportsInterface","inputs":[{"name":"interfaceId","type":"bytes4","internalType":"bytes4"}],"outputs":[{"name":"","type":"bool","internalType":"bool"}],"stateMutability":"view"},{"type":"function","name":"symbol","inputs":[],"outputs":[{"name":"","type":"string","internalType":"string"}],"stateMutability":"view"},{"type":"function","name":"tokenURI","inputs":[{"name":"tokenId","type":"uint256","internalType":"uint256"}],"outputs":[{"name":"","type":"string","internalType":"string"}],"stateMutability":"view"},{"type":"function","name":"transferFrom","inputs":[{"name":"from","type":"address","internalType":"address"},{"name":"to","type":"address","internalType":"address"},{"name":"tokenId","type":"uint256","internalType":"uint256"}],"outputs":[],"stateMutability":"nonpayable"},{"type":"event","name":"Approval","inputs":[{"name":"owner","type":"address","indexed":true,"internalType":"address"},{"name":"approved","type":"address","indexed":true,"internalType":"address"},{"name":"tokenId","type":"uint256","indexed":true,"internalType":"uint256"}],"anonymous":false},{"type":"event","name":"ApprovalForAll","inputs":[{"name":"owner","type":"address","indexed":true,"internalType":"address"},{"name":"operator","type":"address","indexed":true,"internalType":"address"},{"name":"approved","type":"bool","indexed":false,"internalType":"bool"}],"anonymous":false},{"type":"event","name":"Transfer","inputs":[{"name":"from","type":"address","indexed":true,"internalType":"address"},{"name":"to","type":"address","indexed":true,"internalType":"address"},{"name":"tokenId","type":"uint256","indexed":true,"internalType":"uint256"}],"anonymous":false},{"type":"error","name":"BasicNft__TokenUriNotFound","inputs":[]},{"type":"error","name":"ERC721IncorrectOwner","inputs":[{"name":"sender","type":"address","internalType":"address"},{"name":"tokenId","type":"uint256","internalType":"uint256"},{"name":"owner","type":"address","internalType":"address"}]},{"type":"error","name":"ERC721InsufficientApproval","inputs":[{"name":"operator","type":"address","internalType":"address"},{"name":"tokenId","type":"uint256","internalType":"uint256"}]},{"type":"error","name":"ERC721InvalidApprover","inputs":[{"name":"approver","type":"address","internalType":"address"}]},{"type":"error","name":"ERC721InvalidOperator","inputs":[{"name":"operator","type":"address","internalType":"address"}]},{"type":"error","name":"ERC721InvalidOwner","inputs":[{"name":"owner","type":"address","internalType":"address"}]},{"type":"error","name":"ERC721InvalidReceiver","inputs":[{"name":"receiver","type":"address","internalType":"address"}]},{"type":"error","name":"ERC721InvalidSender","inputs":[{"name":"sender","type":"address","internalType":"address"}]},{"type":"error","name":"ERC721NonexistentToken","inputs":[{"name":"tokenId","type":"uint256","internalType":"uint256"}]}],"bytecode":{"object":"0x60806040523480156200001157600080fd5b506040518060400160405280600581526020017f446f6769650000000000000000000000000000000000000000000000000000008152506040518060400160405280600381526020017f444f47000000000000000000000000000000000000000000000000000000000081525081600090816200008f91906200032c565b508060019081620000a191906200032c565b505050600060078190555062000413565b600081519050919050565b7f4e487b7100000000000000000000000000000000000000000000000000000000600052604160045260246000fd5b7f4e487b7100000000000000000000000000000000000000000000000000000000600052602260045260246000fd5b600060028204905060018216806200013457607f821691505b6020821081036200014a5762000149620000ec565b5b50919050565b60008190508160005260206000209050919050565b60006020601f8301049050919050565b600082821b905092915050565b600060088302620001b47fffffffffffffffffffffffffffffffffffffffffffffffffffffffffffffffff8262000175565b620001c0868362000175565b95508019841693508086168417925050509392505050565b6000819050919050565b6000819050919050565b60006200020d620002076200020184620001d8565b620001e2565b620001d8565b9050919050565b6000819050919050565b6200022983620001ec565b62000241620002388262000214565b84845462000182565b825550505050565b600090565b6200025862000249565b620002658184846200021e565b505050565b5b818110156200028d57620002816000826200024e565b6001810190506200026b565b5050565b601f821115620002dc57620002a68162000150565b620002b18462000165565b81016020851015620002c1578190505b620002d9620002d08562000165565b8301826200026a565b50505b505050565b600082821c905092915050565b60006200030160001984600802620002e1565b1980831691505092915050565b60006200031c8383620002ee565b9150826002028217905092915050565b6200033782620000b2565b67ffffffffffffffff811115620003535762000352620000bd565b5b6200035f82546200011b565b6200036c82828562000291565b600060209050601f831160018114620003a457600084156200038f578287015190505b6200039b85826200030e565b8655506200040b565b601f198416620003b48662000150565b60005b82811015620003de57848901518255600182019150602085019450602081019050620003b7565b86831015620003fe5784890151620003fa601f891682620002ee565b8355505b6001600288020188555050505b505050505050565b61200e80620004236000396000f3fe608060405234801561001057600080fd5b50600436106100f55760003560e01c80636e02007d11610097578063b88d4fde11610066578063b88d4fde14610284578063c87b56dd146102a0578063da86f4a9146102d0578063e985e9c5146102ec576100f5565b80636e02007d146101fc57806370a082311461021a57806395d89b411461024a578063a22cb46514610268576100f5565b8063095ea7b3116100d3578063095ea7b31461017857806323b872dd1461019457806342842e0e146101b05780636352211e146101cc576100f5565b806301ffc9a7146100fa57806306fdde031461012a578063081812fc14610148575b600080fd5b610114600480360381019061010f919061151c565b61031c565b6040516101219190611564565b60405180910390f35b6101326103fe565b60405161013f919061160f565b60405180910390f35b610162600480360381019061015d9190611667565b610490565b60405161016f91906116d5565b60405180910390f35b610192600480360381019061018d919061171c565b6104ac565b005b6101ae60048036038101906101a9919061175c565b6104c2565b005b6101ca60048036038101906101c5919061175c565b6105c4565b005b6101e660048036038101906101e19190611667565b6105e4565b6040516101f391906116d5565b60405180910390f35b6102046105f6565b60405161021191906117be565b60405180910390f35b610234600480360381019061022f91906117d9565b610600565b60405161024191906117be565b60405180910390f35b6102526106ba565b60405161025f919061160f565b60405180910390f35b610282600480360381019061027d9190611832565b61074c565b005b61029e600480360381019061029991906119a7565b610762565b005b6102ba60048036038101906102b59190611667565b61077f565b6040516102c7919061160f565b60405180910390f35b6102ea60048036038101906102e59190611acb565b610892565b005b61030660048036038101906103019190611b14565b6108d9565b6040516103139190611564565b60405180910390f35b60007f80ac58cd000000000000000000000000000000000000000000000000000000007bffffffffffffffffffffffffffffffffffffffffffffffffffffffff1916827bffffffffffffffffffffffffffffffffffffffffffffffffffffffff191614806103e757507f5b5e139f000000000000000000000000000000000000000000000000000000007bffffffffffffffffffffffffffffffffffffffffffffffffffffffff1916827bffffffffffffffffffffffffffffffffffffffffffffffffffffffff1916145b806103f757506103f68261096d565b5b9050919050565b60606000805461040d90611b83565b80601f016020809104026020016040519081016040528092919081815260200182805461043990611b83565b80156104865780601f1061045b57610100808354040283529160200191610486565b820191906000526020600020905b81548152906001019060200180831161046957829003601f168201915b5050505050905090565b600061049b826109d7565b506104a582610a5f565b9050919050565b6104be82826104b9610a9c565b610aa4565b5050565b600073ffffffffffffffffffffffffffffffffffffffff168273ffffffffffffffffffffffffffffffffffffffff16036105345760006040517f64a0ae9200000000000000000000000000000000000000000000000000000000815260040161052b91906116d5565b60405180910390fd5b60006105488383610543610a9c565b610ab6565b90508373ffffffffffffffffffffffffffffffffffffffff168173ffffffffffffffffffffffffffffffffffffffff16146105be578382826040517f64283d7b0000000000000000000000000000000000000000000000000000000081526004016105b593929190611bb4565b60405180910390fd5b50505050565b6105df83838360405180602001604052806000815250610762565b505050565b60006105ef826109d7565b9050919050565b6000600754905090565b60008073ffffffffffffffffffffffffffffffffffffffff168273ffffffffffffffffffffffffffffffffffffffff16036106735760006040517f89c62b6400000000000000000000000000000000000000000000000000000000815260040161066a91906116d5565b60405180910390fd5b600360008373ffffffffffffffffffffffffffffffffffffffff1673ffffffffffffffffffffffffffffffffffffffff168152602001908152602001600020549050919050565b6060600180546106c990611b83565b80601f01602080910402602001604051908101604052809291908181526020018280546106f590611b83565b80156107425780601f1061071757610100808354040283529160200191610742565b820191906000526020600020905b81548152906001019060200180831161072557829003601f168201915b5050505050905090565b61075e610757610a9c565b8383610cd0565b5050565b61076d8484846104c2565b61077984848484610e3f565b50505050565b6060600073ffffffffffffffffffffffffffffffffffffffff166107a2836105e4565b73ffffffffffffffffffffffffffffffffffffffff16036107ef576040517f7598996f00000000000000000000000000000000000000000000000000000000815260040160405180910390fd5b60066000838152602001908152602001600020805461080d90611b83565b80601f016020809104026020016040519081016040528092919081815260200182805461083990611b83565b80156108865780601f1061085b57610100808354040283529160200191610886565b820191906000526020600020905b81548152906001019060200180831161086957829003601f168201915b50505050509050919050565b8060066000600754815260200190815260200160002090816108b49190611d97565b506108c133600754610ff6565b60016007546108d09190611e98565b60078190555050565b6000600560008473ffffffffffffffffffffffffffffffffffffffff1673ffffffffffffffffffffffffffffffffffffffff16815260200190815260200160002060008373ffffffffffffffffffffffffffffffffffffffff1673ffffffffffffffffffffffffffffffffffffffff16815260200190815260200160002060009054906101000a900460ff16905092915050565b60007f01ffc9a7000000000000000000000000000000000000000000000000000000007bffffffffffffffffffffffffffffffffffffffffffffffffffffffff1916827bffffffffffffffffffffffffffffffffffffffffffffffffffffffff1916149050919050565b6000806109e383611014565b9050600073ffffffffffffffffffffffffffffffffffffffff168173ffffffffffffffffffffffffffffffffffffffff1603610a5657826040517f7e273289000000000000000000000000000000000000000000000000000000008152600401610a4d91906117be565b60405180910390fd5b80915050919050565b60006004600083815260200190815260200160002060009054906101000a900473ffffffffffffffffffffffffffffffffffffffff169050919050565b600033905090565b610ab18383836001611051565b505050565b600080610ac284611014565b9050600073ffffffffffffffffffffffffffffffffffffffff168373ffffffffffffffffffffffffffffffffffffffff1614610b0457610b03818486611216565b5b600073ffffffffffffffffffffffffffffffffffffffff168173ffffffffffffffffffffffffffffffffffffffff1614610b9557610b46600085600080611051565b6001600360008373ffffffffffffffffffffffffffffffffffffffff1673ffffffffffffffffffffffffffffffffffffffff168152602001908152602001600020600082825403925050819055505b600073ffffffffffffffffffffffffffffffffffffffff168573ffffffffffffffffffffffffffffffffffffffff1614610c18576001600360008773ffffffffffffffffffffffffffffffffffffffff1673ffffffffffffffffffffffffffffffffffffffff168152602001908152602001600020600082825401925050819055505b846002600086815260200190815260200160002060006101000a81548173ffffffffffffffffffffffffffffffffffffffff021916908373ffffffffffffffffffffffffffffffffffffffff160217905550838573ffffffffffffffffffffffffffffffffffffffff168273ffffffffffffffffffffffffffffffffffffffff167fddf252ad1be2c89b69c2b068fc378daa952ba7f163c4a11628f55a4df523b3ef60405160405180910390a4809150509392505050565b600073ffffffffffffffffffffffffffffffffffffffff168273ffffffffffffffffffffffffffffffffffffffff1603610d4157816040517f5b08ba18000000000000000000000000000000000000000000000000000000008152600401610d3891906116d5565b60405180910390fd5b80600560008573ffffffffffffffffffffffffffffffffffffffff1673ffffffffffffffffffffffffffffffffffffffff16815260200190815260200160002060008473ffffffffffffffffffffffffffffffffffffffff1673ffffffffffffffffffffffffffffffffffffffff16815260200190815260200160002060006101000a81548160ff0219169083151502179055508173ffffffffffffffffffffffffffffffffffffffff168373ffffffffffffffffffffffffffffffffffffffff167f17307eab39ab6107e8899845ad3d59bd9653f200f220920489ca2b5937696c3183604051610e329190611564565b60405180910390a3505050565b60008373ffffffffffffffffffffffffffffffffffffffff163b1115610ff0578273ffffffffffffffffffffffffffffffffffffffff1663150b7a02610e83610a9c565b8685856040518563ffffffff1660e01b8152600401610ea59493929190611f21565b6020604051808303816000875af1925050508015610ee157506040513d601f19601f82011682018060405250810190610ede9190611f82565b60015b610f65573d8060008114610f11576040519150601f19603f3d011682016040523d82523d6000602084013e610f16565b606091505b506000815103610f5d57836040517f64a0ae92000000000000000000000000000000000000000000000000000000008152600401610f5491906116d5565b60405180910390fd5b805181602001fd5b63150b7a0260e01b7bffffffffffffffffffffffffffffffffffffffffffffffffffffffff1916817bffffffffffffffffffffffffffffffffffffffffffffffffffffffff191614610fee57836040517f64a0ae92000000000000000000000000000000000000000000000000000000008152600401610fe591906116d5565b60405180910390fd5b505b50505050565b6110108282604051806020016040528060008152506112da565b5050565b60006002600083815260200190815260200160002060009054906101000a900473ffffffffffffffffffffffffffffffffffffffff169050919050565b808061108a5750600073ffffffffffffffffffffffffffffffffffffffff168273ffffffffffffffffffffffffffffffffffffffff1614155b156111be57600061109a846109d7565b9050600073ffffffffffffffffffffffffffffffffffffffff168373ffffffffffffffffffffffffffffffffffffffff161415801561110557508273ffffffffffffffffffffffffffffffffffffffff168173ffffffffffffffffffffffffffffffffffffffff1614155b8015611118575061111681846108d9565b155b1561115a57826040517fa9fbf51f00000000000000000000000000000000000000000000000000000000815260040161115191906116d5565b60405180910390fd5b81156111bc57838573ffffffffffffffffffffffffffffffffffffffff168273ffffffffffffffffffffffffffffffffffffffff167f8c5be1e5ebec7d5bd14f71427d1e84f3dd0314c0f7b2291e5b200ac8c7c3b92560405160405180910390a45b505b836004600085815260200190815260200160002060006101000a81548173ffffffffffffffffffffffffffffffffffffffff021916908373ffffffffffffffffffffffffffffffffffffffff16021790555050505050565b6112218383836112f6565b6112d557600073ffffffffffffffffffffffffffffffffffffffff168373ffffffffffffffffffffffffffffffffffffffff160361129657806040517f7e27328900000000000000000000000000000000000000000000000000000000815260040161128d91906117be565b60405180910390fd5b81816040517f177e802f0000000000000000000000000000000000000000000000000000000081526004016112cc929190611faf565b60405180910390fd5b505050565b6112e483836113b7565b6112f16000848484610e3f565b505050565b60008073ffffffffffffffffffffffffffffffffffffffff168373ffffffffffffffffffffffffffffffffffffffff16141580156113ae57508273ffffffffffffffffffffffffffffffffffffffff168473ffffffffffffffffffffffffffffffffffffffff16148061136f575061136e84846108d9565b5b806113ad57508273ffffffffffffffffffffffffffffffffffffffff1661139583610a5f565b73ffffffffffffffffffffffffffffffffffffffff16145b5b90509392505050565b600073ffffffffffffffffffffffffffffffffffffffff168273ffffffffffffffffffffffffffffffffffffffff16036114295760006040517f64a0ae9200000000000000000000000000000000000000000000000000000000815260040161142091906116d5565b60405180910390fd5b600061143783836000610ab6565b9050600073ffffffffffffffffffffffffffffffffffffffff168173ffffffffffffffffffffffffffffffffffffffff16146114ab5760006040517f73c6ac6e0000000000000000000000000000000000000000000000000000000081526004016114a291906116d5565b60405180910390fd5b505050565b6000604051905090565b600080fd5b600080fd5b60007fffffffff0000000000000000000000000000000000000000000000000000000082169050919050565b6114f9816114c4565b811461150457600080fd5b50565b600081359050611516816114f0565b92915050565b600060208284031215611532576115316114ba565b5b600061154084828501611507565b91505092915050565b60008115159050919050565b61155e81611549565b82525050565b60006020820190506115796000830184611555565b92915050565b600081519050919050565b600082825260208201905092915050565b60005b838110156115b957808201518184015260208101905061159e565b60008484015250505050565b6000601f19601f8301169050919050565b60006115e18261157f565b6115eb818561158a565b93506115fb81856020860161159b565b611604816115c5565b840191505092915050565b6000602082019050818103600083015261162981846115d6565b905092915050565b6000819050919050565b61164481611631565b811461164f57600080fd5b50565b6000813590506116618161163b565b92915050565b60006020828403121561167d5761167c6114ba565b5b600061168b84828501611652565b91505092915050565b600073ffffffffffffffffffffffffffffffffffffffff82169050919050565b60006116bf82611694565b9050919050565b6116cf816116b4565b82525050565b60006020820190506116ea60008301846116c6565b92915050565b6116f9816116b4565b811461170457600080fd5b50565b600081359050611716816116f0565b92915050565b60008060408385031215611733576117326114ba565b5b600061174185828601611707565b925050602061175285828601611652565b9150509250929050565b600080600060608486031215611775576117746114ba565b5b600061178386828701611707565b935050602061179486828701611707565b92505060406117a586828701611652565b9150509250925092565b6117b881611631565b82525050565b60006020820190506117d360008301846117af565b92915050565b6000602082840312156117ef576117ee6114ba565b5b60006117fd84828501611707565b91505092915050565b61180f81611549565b811461181a57600080fd5b50565b60008135905061182c81611806565b92915050565b60008060408385031215611849576118486114ba565b5b600061185785828601611707565b92505060206118688582860161181d565b9150509250929050565b600080fd5b600080fd5b7f4e487b7100000000000000000000000000000000000000000000000000000000600052604160045260246000fd5b6118b4826115c5565b810181811067ffffffffffffffff821117156118d3576118d261187c565b5b80604052505050565b60006118e66114b0565b90506118f282826118ab565b919050565b600067ffffffffffffffff8211156119125761191161187c565b5b61191b826115c5565b9050602081019050919050565b82818337600083830152505050565b600061194a611945846118f7565b6118dc565b90508281526020810184848401111561196657611965611877565b5b611971848285611928565b509392505050565b600082601f83011261198e5761198d611872565b5b813561199e848260208601611937565b91505092915050565b600080600080608085870312156119c1576119c06114ba565b5b60006119cf87828801611707565b94505060206119e087828801611707565b93505060406119f187828801611652565b925050606085013567ffffffffffffffff811115611a1257611a116114bf565b5b611a1e87828801611979565b91505092959194509250565b600067ffffffffffffffff821115611a4557611a4461187c565b5b611a4e826115c5565b9050602081019050919050565b6000611a6e611a6984611a2a565b6118dc565b905082815260208101848484011115611a8a57611a89611877565b5b611a95848285611928565b509392505050565b600082601f830112611ab257611ab1611872565b5b8135611ac2848260208601611a5b565b91505092915050565b600060208284031215611ae157611ae06114ba565b5b600082013567ffffffffffffffff811115611aff57611afe6114bf565b5b611b0b84828501611a9d565b91505092915050565b60008060408385031215611b2b57611b2a6114ba565b5b6000611b3985828601611707565b9250506020611b4a85828601611707565b9150509250929050565b7f4e487b7100000000000000000000000000000000000000000000000000000000600052602260045260246000fd5b60006002820490506001821680611b9b57607f821691505b602082108103611bae57611bad611b54565b5b50919050565b6000606082019050611bc960008301866116c6565b611bd660208301856117af565b611be360408301846116c6565b949350505050565b60008190508160005260206000209050919050565b60006020601f8301049050919050565b600082821b905092915050565b600060088302611c4d7fffffffffffffffffffffffffffffffffffffffffffffffffffffffffffffffff82611c10565b611c578683611c10565b95508019841693508086168417925050509392505050565b6000819050919050565b6000611c94611c8f611c8a84611631565b611c6f565b611631565b9050919050565b6000819050919050565b611cae83611c79565b611cc2611cba82611c9b565b848454611c1d565b825550505050565b600090565b611cd7611cca565b611ce2818484611ca5565b505050565b5b81811015611d0657611cfb600082611ccf565b600181019050611ce8565b5050565b601f821115611d4b57611d1c81611beb565b611d2584611c00565b81016020851015611d34578190505b611d48611d4085611c00565b830182611ce7565b50505b505050565b600082821c905092915050565b6000611d6e60001984600802611d50565b1980831691505092915050565b6000611d878383611d5d565b9150826002028217905092915050565b611da08261157f565b67ffffffffffffffff811115611db957611db861187c565b5b611dc38254611b83565b611dce828285611d0a565b600060209050601f831160018114611e015760008415611def578287015190505b611df98582611d7b565b865550611e61565b601f198416611e0f86611beb565b60005b82811015611e3757848901518255600182019150602085019450602081019050611e12565b86831015611e545784890151611e50601f891682611d5d565b8355505b6001600288020188555050505b505050505050565b7f4e487b7100000000000000000000000000000000000000000000000000000000600052601160045260246000fd5b6000611ea382611631565b9150611eae83611631565b9250828201905080821115611ec657611ec5611e69565b5b92915050565b600081519050919050565b600082825260208201905092915050565b6000611ef382611ecc565b611efd8185611ed7565b9350611f0d81856020860161159b565b611f16816115c5565b840191505092915050565b6000608082019050611f3660008301876116c6565b611f4360208301866116c6565b611f5060408301856117af565b8181036060830152611f628184611ee8565b905095945050505050565b600081519050611f7c816114f0565b92915050565b600060208284031215611f9857611f976114ba565b5b6000611fa684828501611f6d565b91505092915050565b6000604082019050611fc460008301856116c6565b611fd160208301846117af565b939250505056fea264697066735822122005724365353dd2509ecf07363e861bf0a415aaadbded31e3d02598aa831fd9bb64736f6c63430008140033","linkReferences":{}},"methodIdentifiers":{"approve(address,uint256)":"095ea7b3","balanceOf(address)":"70a08231","getApproved(uint256)":"081812fc","getTokenCounter()":"6e02007d","isApprovedForAll(address,address)":"e985e9c5","mintNft(string)":"da86f4a9","name()":"06fdde03","ownerOf(uint256)":"6352211e","safeTransferFrom(address,address,uint256)":"42842e0e","safeTransferFrom(address,address,uint256,bytes)":"b88d4fde","setApprovalForAll(address,bool)":"a22cb465","supportsInterface(bytes4)":"01ffc9a7","symbol()":"95d89b41","tokenURI(uint256)":"c87b56dd","transferFrom(address,address,uint256)":"23b872dd"},"id":44}