{"abi":[{"type":"constructor","inputs":[{"name":"sadSvgUri","type":"string","internalType":"string"},{"name":"happySvgUri","type":"string","internalType":"string"}],"stateMutability":"nonpayable"},{"type":"function","name":"approve","inputs":[{"name":"to","type":"address","internalType":"address"},{"name":"tokenId","type":"uint256","internalType":"uint256"}],"outputs":[],"stateMutability":"nonpayable"},{"type":"function","name":"balanceOf","inputs":[{"name":"owner","type":"address","internalType":"address"}],"outputs":[{"name":"","type":"uint256","internalType":"uint256"}],"stateMutability":"view"},{"type":"function","name":"flipMood","inputs":[{"name":"tokenId","type":"uint256","internalType":"uint256"}],"outputs":[],"stateMutability":"nonpayable"},{"type":"function","name":"getApproved","inputs":[{"name":"tokenId","type":"uint256","internalType":"uint256"}],"outputs":[{"name":"","type":"address","internalType":"address"}],"stateMutability":"view"},{"type":"function","name":"getHappySVG","inputs":[],"outputs":[{"name":"","type":"string","internalType":"string"}],"stateMutability":"view"},{"type":"function","name":"getSadSVG","inputs":[],"outputs":[{"name":"","type":"string","internalType":"string"}],"stateMutability":"view"},{"type":"function","name":"getTokenCounter","inputs":[],"outputs":[{"name":"","type":"uint256","internalType":"uint256"}],"stateMutability":"view"},{"type":"function","name":"isApprovedForAll","inputs":[{"name":"owner","type":"address","internalType":"address"},{"name":"operator","type":"address","internalType":"address"}],"outputs":[{"name":"","type":"bool","internalType":"bool"}],"stateMutability":"view"},{"type":"function","name":"mintNft","inputs":[],"outputs":[],"stateMutability":"nonpayable"},{"type":"function","name":"name","inputs":[],"outputs":[{"name":"","type":"string","internalType":"string"}],"stateMutability":"view"},{"type":"function","name":"owner","inputs":[],"outputs":[{"name":"","type":"address","internalType":"address"}],"stateMutability":"view"},{"type":"function","name":"ownerOf","inputs":[{"name":"tokenId","type":"uint256","internalType":"uint256"}],"outputs":[{"name":"","type":"address","internalType":"address"}],"stateMutability":"view"},{"type":"function","name":"renounceOwnership","inputs":[],"outputs":[],"stateMutability":"nonpayable"},{"type":"function","name":"safeTransferFrom","inputs":[{"name":"from","type":"address","internalType":"address"},{"name":"to","type":"address","internalType":"address"},{"name":"tokenId","type":"uint256","internalType":"uint256"}],"outputs":[],"stateMutability":"nonpayable"},{"type":"function","name":"safeTransferFrom","inputs":[{"name":"from","type":"address","internalType":"address"},{"name":"to","type":"address","internalType":"address"},{"name":"tokenId","type":"uint256","internalType":"uint256"},{"name":"data","type":"bytes","internalType":"bytes"}],"outputs":[],"stateMutability":"nonpayable"},{"type":"function","name":"setApprovalForAll","inputs":[{"name":"operator","type":"address","internalType":"address"},{"name":"approved","type":"bool","internalType":"bool"}],"outputs":[],"stateMutability":"nonpayable"},{"type":"function","name":"supportsInterface","inputs":[{"name":"interfaceId","type":"bytes4","internalType":"bytes4"}],"outputs":[{"name":"","type":"bool","internalType":"bool"}],"stateMutability":"view"},{"type":"function","name":"symbol","inputs":[],"outputs":[{"name":"","type":"string","internalType":"string"}],"stateMutability":"view"},{"type":"function","name":"tokenURI","inputs":[{"name":"tokenId","type":"uint256","internalType":"uint256"}],"outputs":[{"name":"","type":"string","internalType":"string"}],"stateMutability":"view"},{"type":"function","name":"transferFrom","inputs":[{"name":"from","type":"address","internalType":"address"},{"name":"to","type":"address","internalType":"address"},{"name":"tokenId","type":"uint256","internalType":"uint256"}],"outputs":[],"stateMutability":"nonpayable"},{"type":"function","name":"transferOwnership","inputs":[{"name":"newOwner","type":"address","internalType":"address"}],"outputs":[],"stateMutability":"nonpayable"},{"type":"event","name":"Approval","inputs":[{"name":"owner","type":"address","indexed":true,"internalType":"address"},{"name":"approved","type":"address","indexed":true,"internalType":"address"},{"name":"tokenId","type":"uint256","indexed":true,"internalType":"uint256"}],"anonymous":false},{"type":"event","name":"ApprovalForAll","inputs":[{"name":"owner","type":"address","indexed":true,"internalType":"address"},{"name":"operator","type":"address","indexed":true,"internalType":"address"},{"name":"approved","type":"bool","indexed":false,"internalType":"bool"}],"anonymous":false},{"type":"event","name":"CreatedNFT","inputs":[{"name":"tokenId","type":"uint256","indexed":true,"internalType":"uint256"}],"anonymous":false},{"type":"event","name":"OwnershipTransferred","inputs":[{"name":"previousOwner","type":"address","indexed":true,"internalType":"address"},{"name":"newOwner","type":"address","indexed":true,"internalType":"address"}],"anonymous":false},{"type":"event","name":"Transfer","inputs":[{"name":"from","type":"address","indexed":true,"internalType":"address"},{"name":"to","type":"address","indexed":true,"internalType":"address"},{"name":"tokenId","type":"uint256","indexed":true,"internalType":"uint256"}],"anonymous":false},{"type":"error","name":"ERC721IncorrectOwner","inputs":[{"name":"sender","type":"address","internalType":"address"},{"name":"tokenId","type":"uint256","internalType":"uint256"},{"name":"owner","type":"address","internalType":"address"}]},{"type":"error","name":"ERC721InsufficientApproval","inputs":[{"name":"operator","type":"address","internalType":"address"},{"name":"tokenId","type":"uint256","internalType":"uint256"}]},{"type":"error","name":"ERC721InvalidApprover","inputs":[{"name":"approver","type":"address","internalType":"address"}]},{"type":"error","name":"ERC721InvalidOperator","inputs":[{"name":"operator","type":"address","internalType":"address"}]},{"type":"error","name":"ERC721InvalidOwner","inputs":[{"name":"owner","type":"address","internalType":"address"}]},{"type":"error","name":"ERC721InvalidReceiver","inputs":[{"name":"receiver","type":"address","internalType":"address"}]},{"type":"error","name":"ERC721InvalidSender","inputs":[{"name":"sender","type":"address","internalType":"address"}]},{"type":"error","name":"ERC721Metadata__URI_QueryFor_NonExistentToken","inputs":[]},{"type":"error","name":"ERC721NonexistentToken","inputs":[{"name":"tokenId","type":"uint256","internalType":"uint256"}]},{"type":"error","name":"MoodNft__CantFlipMoodIfNotOwner","inputs":[]},{"type":"error","name":"OwnableInvalidOwner","inputs":[{"name":"owner","type":"address","internalType":"address"}]},{"type":"error","name":"OwnableUnauthorizedAccount","inputs":[{"name":"account","type":"address","internalType":"address"}]}],"bytecode":{"object":"0x60806040523480156200001157600080fd5b5060405162003097380380620030978339818101604052810190620000379190620003de565b336040518060400160405280600881526020017f4d6f6f64204e46540000000000000000000000000000000000000000000000008152506040518060400160405280600281526020017f4d4e0000000000000000000000000000000000000000000000000000000000008152508160009081620000b59190620006ae565b508060019081620000c79190620006ae565b505050600073ffffffffffffffffffffffffffffffffffffffff168173ffffffffffffffffffffffffffffffffffffffff16036200013f5760006040517f1e4fbdf7000000000000000000000000000000000000000000000000000000008152600401620001369190620007da565b60405180910390fd5b62000150816200018560201b60201c565b50600060078190555081600890816200016a9190620006ae565b5080600990816200017c9190620006ae565b505050620007f7565b6000600660009054906101000a900473ffffffffffffffffffffffffffffffffffffffff16905081600660006101000a81548173ffffffffffffffffffffffffffffffffffffffff021916908373ffffffffffffffffffffffffffffffffffffffff1602179055508173ffffffffffffffffffffffffffffffffffffffff168173ffffffffffffffffffffffffffffffffffffffff167f8be0079c531659141344cd1fd0a4f28419497f9722a3daafe3b4186f6b6457e060405160405180910390a35050565b6000604051905090565b600080fd5b600080fd5b600080fd5b600080fd5b6000601f19601f8301169050919050565b7f4e487b7100000000000000000000000000000000000000000000000000000000600052604160045260246000fd5b620002b48262000269565b810181811067ffffffffffffffff82111715620002d657620002d56200027a565b5b80604052505050565b6000620002eb6200024b565b9050620002f98282620002a9565b919050565b600067ffffffffffffffff8211156200031c576200031b6200027a565b5b620003278262000269565b9050602081019050919050565b60005b838110156200035457808201518184015260208101905062000337565b60008484015250505050565b6000620003776200037184620002fe565b620002df565b90508281526020810184848401111562000396576200039562000264565b5b620003a384828562000334565b509392505050565b600082601f830112620003c357620003c26200025f565b5b8151620003d584826020860162000360565b91505092915050565b60008060408385031215620003f857620003f762000255565b5b600083015167ffffffffffffffff8111156200041957620004186200025a565b5b6200042785828601620003ab565b925050602083015167ffffffffffffffff8111156200044b576200044a6200025a565b5b6200045985828601620003ab565b9150509250929050565b600081519050919050565b7f4e487b7100000000000000000000000000000000000000000000000000000000600052602260045260246000fd5b60006002820490506001821680620004b657607f821691505b602082108103620004cc57620004cb6200046e565b5b50919050565b60008190508160005260206000209050919050565b60006020601f8301049050919050565b600082821b905092915050565b600060088302620005367fffffffffffffffffffffffffffffffffffffffffffffffffffffffffffffffff82620004f7565b620005428683620004f7565b95508019841693508086168417925050509392505050565b6000819050919050565b6000819050919050565b60006200058f6200058962000583846200055a565b62000564565b6200055a565b9050919050565b6000819050919050565b620005ab836200056e565b620005c3620005ba8262000596565b84845462000504565b825550505050565b600090565b620005da620005cb565b620005e7818484620005a0565b505050565b5b818110156200060f5762000603600082620005d0565b600181019050620005ed565b5050565b601f8211156200065e576200062881620004d2565b6200063384620004e7565b8101602085101562000643578190505b6200065b6200065285620004e7565b830182620005ec565b50505b505050565b600082821c905092915050565b6000620006836000198460080262000663565b1980831691505092915050565b60006200069e838362000670565b9150826002028217905092915050565b620006b98262000463565b67ffffffffffffffff811115620006d557620006d46200027a565b5b620006e182546200049d565b620006ee82828562000613565b600060209050601f83116001811462000726576000841562000711578287015190505b6200071d858262000690565b8655506200078d565b601f1984166200073686620004d2565b60005b82811015620007605784890151825560018201915060208501945060208101905062000739565b868310156200078057848901516200077c601f89168262000670565b8355505b6001600288020188555050505b505050505050565b600073ffffffffffffffffffffffffffffffffffffffff82169050919050565b6000620007c28262000795565b9050919050565b620007d481620007b5565b82525050565b6000602082019050620007f16000830184620007c9565b92915050565b61289080620008076000396000f3fe608060405234801561001057600080fd5b50600436106101375760003560e01c8063715018a6116100b8578063c1a147a01161007c578063c1a147a014610328578063c2229fea14610344578063c87b56dd1461034e578063e985e9c51461037e578063f2fde38b146103ae578063fc842121146103ca57610137565b8063715018a6146102aa5780638da5cb5b146102b457806395d89b41146102d2578063a22cb465146102f0578063b88d4fde1461030c57610137565b806342842e0e116100ff57806342842e0e146101f25780635de0682f1461020e5780636352211e1461022c5780636e02007d1461025c57806370a082311461027a57610137565b806301ffc9a71461013c57806306fdde031461016c578063081812fc1461018a578063095ea7b3146101ba57806323b872dd146101d6575b600080fd5b61015660048036038101906101519190611d7d565b6103e8565b6040516101639190611dc5565b60405180910390f35b6101746104ca565b6040516101819190611e70565b60405180910390f35b6101a4600480360381019061019f9190611ec8565b61055c565b6040516101b19190611f36565b60405180910390f35b6101d460048036038101906101cf9190611f7d565b610578565b005b6101f060048036038101906101eb9190611fbd565b61058e565b005b61020c60048036038101906102079190611fbd565b610690565b005b6102166106b0565b6040516102239190611e70565b60405180910390f35b61024660048036038101906102419190611ec8565b610742565b6040516102539190611f36565b60405180910390f35b610264610754565b604051610271919061201f565b60405180910390f35b610294600480360381019061028f919061203a565b61075e565b6040516102a1919061201f565b60405180910390f35b6102b2610818565b005b6102bc61082c565b6040516102c99190611f36565b60405180910390f35b6102da610856565b6040516102e79190611e70565b60405180910390f35b61030a60048036038101906103059190612093565b6108e8565b005b61032660048036038101906103219190612208565b6108fe565b005b610342600480360381019061033d9190611ec8565b61091b565b005b61034c610a97565b005b61036860048036038101906103639190611ec8565b610aed565b6040516103759190611e70565b60405180910390f35b6103986004803603810190610393919061228b565b610d26565b6040516103a59190611dc5565b60405180910390f35b6103c860048036038101906103c3919061203a565b610dba565b005b6103d2610e40565b6040516103df9190611e70565b60405180910390f35b60007f80ac58cd000000000000000000000000000000000000000000000000000000007bffffffffffffffffffffffffffffffffffffffffffffffffffffffff1916827bffffffffffffffffffffffffffffffffffffffffffffffffffffffff191614806104b357507f5b5e139f000000000000000000000000000000000000000000000000000000007bffffffffffffffffffffffffffffffffffffffffffffffffffffffff1916827bffffffffffffffffffffffffffffffffffffffffffffffffffffffff1916145b806104c357506104c282610ed2565b5b9050919050565b6060600080546104d9906122fa565b80601f0160208091040260200160405190810160405280929190818152602001828054610505906122fa565b80156105525780601f1061052757610100808354040283529160200191610552565b820191906000526020600020905b81548152906001019060200180831161053557829003601f168201915b5050505050905090565b600061056782610f3c565b5061057182610fc4565b9050919050565b61058a8282610585611001565b611009565b5050565b600073ffffffffffffffffffffffffffffffffffffffff168273ffffffffffffffffffffffffffffffffffffffff16036106005760006040517f64a0ae920000000000000000000000000000000000000000000000000000000081526004016105f79190611f36565b60405180910390fd5b6000610614838361060f611001565b61101b565b90508373ffffffffffffffffffffffffffffffffffffffff168173ffffffffffffffffffffffffffffffffffffffff161461068a578382826040517f64283d7b0000000000000000000000000000000000000000000000000000000081526004016106819392919061232b565b60405180910390fd5b50505050565b6106ab838383604051806020016040528060008152506108fe565b505050565b6060600880546106bf906122fa565b80601f01602080910402602001604051908101604052809291908181526020018280546106eb906122fa565b80156107385780601f1061070d57610100808354040283529160200191610738565b820191906000526020600020905b81548152906001019060200180831161071b57829003601f168201915b5050505050905090565b600061074d82610f3c565b9050919050565b6000600754905090565b60008073ffffffffffffffffffffffffffffffffffffffff168273ffffffffffffffffffffffffffffffffffffffff16036107d15760006040517f89c62b640000000000000000000000000000000000000000000000000000000081526004016107c89190611f36565b60405180910390fd5b600360008373ffffffffffffffffffffffffffffffffffffffff1673ffffffffffffffffffffffffffffffffffffffff168152602001908152602001600020549050919050565b610820611235565b61082a60006112bc565b565b6000600660009054906101000a900473ffffffffffffffffffffffffffffffffffffffff16905090565b606060018054610865906122fa565b80601f0160208091040260200160405190810160405280929190818152602001828054610891906122fa565b80156108de5780601f106108b3576101008083540402835291602001916108de565b820191906000526020600020905b8154815290600101906020018083116108c157829003601f168201915b5050505050905090565b6108fa6108f3611001565b8383611382565b5050565b61090984848461058e565b610915848484846114f1565b50505050565b3373ffffffffffffffffffffffffffffffffffffffff1661093b8261055c565b73ffffffffffffffffffffffffffffffffffffffff161415801561099357503373ffffffffffffffffffffffffffffffffffffffff1661097a82610742565b73ffffffffffffffffffffffffffffffffffffffff1614155b156109ca576040517f85046ca700000000000000000000000000000000000000000000000000000000815260040160405180910390fd5b600060018111156109de576109dd612362565b5b600a600083815260200190815260200160002060009054906101000a900460ff166001811115610a1157610a10612362565b5b03610a57576001600a600083815260200190815260200160002060006101000a81548160ff02191690836001811115610a4d57610a4c612362565b5b0217905550610a94565b6000600a600083815260200190815260200160002060006101000a81548160ff02191690836001811115610a8e57610a8d612362565b5b02179055505b50565b60006007549050610aa833826116a8565b6001600754610ab791906123c0565b600781905550807f72102923c3d44433bd725cb2c744a4c92a536ad249b665dec9853a16ed66552560405160405180910390a250565b6060600073ffffffffffffffffffffffffffffffffffffffff16610b1083610742565b73ffffffffffffffffffffffffffffffffffffffff1603610b5d576040517f6df5edae00000000000000000000000000000000000000000000000000000000815260040160405180910390fd5b600060098054610b6c906122fa565b80601f0160208091040260200160405190810160405280929190818152602001828054610b98906122fa565b8015610be55780601f10610bba57610100808354040283529160200191610be5565b820191906000526020600020905b815481529060010190602001808311610bc857829003601f168201915b50505050509050600180811115610bff57610bfe612362565b5b600a600085815260200190815260200160002060009054906101000a900460ff166001811115610c3257610c31612362565b5b03610cc55760088054610c44906122fa565b80601f0160208091040260200160405190810160405280929190818152602001828054610c70906122fa565b8015610cbd5780601f10610c9257610100808354040283529160200191610cbd565b820191906000526020600020905b815481529060010190602001808311610ca057829003601f168201915b505050505090505b610ccd6116c6565b610cfe610cd86104ca565b83604051602001610cea9291906125f8565b604051602081830303815290604052611703565b604051602001610d0f929190612648565b604051602081830303815290604052915050919050565b6000600560008473ffffffffffffffffffffffffffffffffffffffff1673ffffffffffffffffffffffffffffffffffffffff16815260200190815260200160002060008373ffffffffffffffffffffffffffffffffffffffff1673ffffffffffffffffffffffffffffffffffffffff16815260200190815260200160002060009054906101000a900460ff16905092915050565b610dc2611235565b600073ffffffffffffffffffffffffffffffffffffffff168173ffffffffffffffffffffffffffffffffffffffff1603610e345760006040517f1e4fbdf7000000000000000000000000000000000000000000000000000000008152600401610e2b9190611f36565b60405180910390fd5b610e3d816112bc565b50565b606060098054610e4f906122fa565b80601f0160208091040260200160405190810160405280929190818152602001828054610e7b906122fa565b8015610ec85780601f10610e9d57610100808354040283529160200191610ec8565b820191906000526020600020905b815481529060010190602001808311610eab57829003601f168201915b5050505050905090565b60007f01ffc9a7000000000000000000000000000000000000000000000000000000007bffffffffffffffffffffffffffffffffffffffffffffffffffffffff1916827bffffffffffffffffffffffffffffffffffffffffffffffffffffffff1916149050919050565b600080610f4883611875565b9050600073ffffffffffffffffffffffffffffffffffffffff168173ffffffffffffffffffffffffffffffffffffffff1603610fbb57826040517f7e273289000000000000000000000000000000000000000000000000000000008152600401610fb2919061201f565b60405180910390fd5b80915050919050565b60006004600083815260200190815260200160002060009054906101000a900473ffffffffffffffffffffffffffffffffffffffff169050919050565b600033905090565b61101683838360016118b2565b505050565b60008061102784611875565b9050600073ffffffffffffffffffffffffffffffffffffffff168373ffffffffffffffffffffffffffffffffffffffff161461106957611068818486611a77565b5b600073ffffffffffffffffffffffffffffffffffffffff168173ffffffffffffffffffffffffffffffffffffffff16146110fa576110ab6000856000806118b2565b6001600360008373ffffffffffffffffffffffffffffffffffffffff1673ffffffffffffffffffffffffffffffffffffffff168152602001908152602001600020600082825403925050819055505b600073ffffffffffffffffffffffffffffffffffffffff168573ffffffffffffffffffffffffffffffffffffffff161461117d576001600360008773ffffffffffffffffffffffffffffffffffffffff1673ffffffffffffffffffffffffffffffffffffffff168152602001908152602001600020600082825401925050819055505b846002600086815260200190815260200160002060006101000a81548173ffffffffffffffffffffffffffffffffffffffff021916908373ffffffffffffffffffffffffffffffffffffffff160217905550838573ffffffffffffffffffffffffffffffffffffffff168273ffffffffffffffffffffffffffffffffffffffff167fddf252ad1be2c89b69c2b068fc378daa952ba7f163c4a11628f55a4df523b3ef60405160405180910390a4809150509392505050565b61123d611001565b73ffffffffffffffffffffffffffffffffffffffff1661125b61082c565b73ffffffffffffffffffffffffffffffffffffffff16146112ba5761127e611001565b6040517f118cdaa70000000000000000000000000000000000000000000000000000000081526004016112b19190611f36565b60405180910390fd5b565b6000600660009054906101000a900473ffffffffffffffffffffffffffffffffffffffff16905081600660006101000a81548173ffffffffffffffffffffffffffffffffffffffff021916908373ffffffffffffffffffffffffffffffffffffffff1602179055508173ffffffffffffffffffffffffffffffffffffffff168173ffffffffffffffffffffffffffffffffffffffff167f8be0079c531659141344cd1fd0a4f28419497f9722a3daafe3b4186f6b6457e060405160405180910390a35050565b600073ffffffffffffffffffffffffffffffffffffffff168273ffffffffffffffffffffffffffffffffffffffff16036113f357816040517f5b08ba180000000000000000000000000000000000000000000000000000000081526004016113ea9190611f36565b60405180910390fd5b80600560008573ffffffffffffffffffffffffffffffffffffffff1673ffffffffffffffffffffffffffffffffffffffff16815260200190815260200160002060008473ffffffffffffffffffffffffffffffffffffffff1673ffffffffffffffffffffffffffffffffffffffff16815260200190815260200160002060006101000a81548160ff0219169083151502179055508173ffffffffffffffffffffffffffffffffffffffff168373ffffffffffffffffffffffffffffffffffffffff167f17307eab39ab6107e8899845ad3d59bd9653f200f220920489ca2b5937696c31836040516114e49190611dc5565b60405180910390a3505050565b60008373ffffffffffffffffffffffffffffffffffffffff163b11156116a2578273ffffffffffffffffffffffffffffffffffffffff1663150b7a02611535611001565b8685856040518563ffffffff1660e01b815260040161155794939291906126c1565b6020604051808303816000875af192505050801561159357506040513d601f19601f820116820180604052508101906115909190612722565b60015b611617573d80600081146115c3576040519150601f19603f3d011682016040523d82523d6000602084013e6115c8565b606091505b50600081510361160f57836040517f64a0ae920000000000000000000000000000000000000000000000000000000081526004016116069190611f36565b60405180910390fd5b805181602001fd5b63150b7a0260e01b7bffffffffffffffffffffffffffffffffffffffffffffffffffffffff1916817bffffffffffffffffffffffffffffffffffffffffffffffffffffffff1916146116a057836040517f64a0ae920000000000000000000000000000000000000000000000000000000081526004016116979190611f36565b60405180910390fd5b505b50505050565b6116c2828260405180602001604052806000815250611b3b565b5050565b60606040518060400160405280601d81526020017f646174613a6170706c69636174696f6e2f6a736f6e3b6261736536342c000000815250905090565b6060600082510361172557604051806020016040528060008152509050611870565b600060405180606001604052806040815260200161281b604091399050600060036002855161175491906123c0565b61175e919061277e565b600461176a91906127af565b67ffffffffffffffff811115611783576117826120dd565b5b6040519080825280601f01601f1916602001820160405280156117b55781602001600182028036833780820191505090505b50905060018201602082018586518701602081018051600082525b8284101561182b576003840193508351603f8160121c168701518653600186019550603f81600c1c168701518653600186019550603f8160061c168701518653600186019550603f81168701518653600186019550506117d0565b80825260038a510660018114611848576002811461185b57611863565b603d6001870353603d6002870353611863565b603d60018703535b5050505050505080925050505b919050565b60006002600083815260200190815260200160002060009054906101000a900473ffffffffffffffffffffffffffffffffffffffff169050919050565b80806118eb5750600073ffffffffffffffffffffffffffffffffffffffff168273ffffffffffffffffffffffffffffffffffffffff1614155b15611a1f5760006118fb84610f3c565b9050600073ffffffffffffffffffffffffffffffffffffffff168373ffffffffffffffffffffffffffffffffffffffff161415801561196657508273ffffffffffffffffffffffffffffffffffffffff168173ffffffffffffffffffffffffffffffffffffffff1614155b801561197957506119778184610d26565b155b156119bb57826040517fa9fbf51f0000000000000000000000000000000000000000000000000000000081526004016119b29190611f36565b60405180910390fd5b8115611a1d57838573ffffffffffffffffffffffffffffffffffffffff168273ffffffffffffffffffffffffffffffffffffffff167f8c5be1e5ebec7d5bd14f71427d1e84f3dd0314c0f7b2291e5b200ac8c7c3b92560405160405180910390a45b505b836004600085815260200190815260200160002060006101000a81548173ffffffffffffffffffffffffffffffffffffffff021916908373ffffffffffffffffffffffffffffffffffffffff16021790555050505050565b611a82838383611b57565b611b3657600073ffffffffffffffffffffffffffffffffffffffff168373ffffffffffffffffffffffffffffffffffffffff1603611af757806040517f7e273289000000000000000000000000000000000000000000000000000000008152600401611aee919061201f565b60405180910390fd5b81816040517f177e802f000000000000000000000000000000000000000000000000000000008152600401611b2d9291906127f1565b60405180910390fd5b505050565b611b458383611c18565b611b5260008484846114f1565b505050565b60008073ffffffffffffffffffffffffffffffffffffffff168373ffffffffffffffffffffffffffffffffffffffff1614158015611c0f57508273ffffffffffffffffffffffffffffffffffffffff168473ffffffffffffffffffffffffffffffffffffffff161480611bd05750611bcf8484610d26565b5b80611c0e57508273ffffffffffffffffffffffffffffffffffffffff16611bf683610fc4565b73ffffffffffffffffffffffffffffffffffffffff16145b5b90509392505050565b600073ffffffffffffffffffffffffffffffffffffffff168273ffffffffffffffffffffffffffffffffffffffff1603611c8a5760006040517f64a0ae92000000000000000000000000000000000000000000000000000000008152600401611c819190611f36565b60405180910390fd5b6000611c988383600061101b565b9050600073ffffffffffffffffffffffffffffffffffffffff168173ffffffffffffffffffffffffffffffffffffffff1614611d0c5760006040517f73c6ac6e000000000000000000000000000000000000000000000000000000008152600401611d039190611f36565b60405180910390fd5b505050565b6000604051905090565b600080fd5b600080fd5b60007fffffffff0000000000000000000000000000000000000000000000000000000082169050919050565b611d5a81611d25565b8114611d6557600080fd5b50565b600081359050611d7781611d51565b92915050565b600060208284031215611d9357611d92611d1b565b5b6000611da184828501611d68565b91505092915050565b60008115159050919050565b611dbf81611daa565b82525050565b6000602082019050611dda6000830184611db6565b92915050565b600081519050919050565b600082825260208201905092915050565b60005b83811015611e1a578082015181840152602081019050611dff565b60008484015250505050565b6000601f19601f8301169050919050565b6000611e4282611de0565b611e4c8185611deb565b9350611e5c818560208601611dfc565b611e6581611e26565b840191505092915050565b60006020820190508181036000830152611e8a8184611e37565b905092915050565b6000819050919050565b611ea581611e92565b8114611eb057600080fd5b50565b600081359050611ec281611e9c565b92915050565b600060208284031215611ede57611edd611d1b565b5b6000611eec84828501611eb3565b91505092915050565b600073ffffffffffffffffffffffffffffffffffffffff82169050919050565b6000611f2082611ef5565b9050919050565b611f3081611f15565b82525050565b6000602082019050611f4b6000830184611f27565b92915050565b611f5a81611f15565b8114611f6557600080fd5b50565b600081359050611f7781611f51565b92915050565b60008060408385031215611f9457611f93611d1b565b5b6000611fa285828601611f68565b9250506020611fb385828601611eb3565b9150509250929050565b600080600060608486031215611fd657611fd5611d1b565b5b6000611fe486828701611f68565b9350506020611ff586828701611f68565b925050604061200686828701611eb3565b9150509250925092565b61201981611e92565b82525050565b60006020820190506120346000830184612010565b92915050565b6000602082840312156120505761204f611d1b565b5b600061205e84828501611f68565b91505092915050565b61207081611daa565b811461207b57600080fd5b50565b60008135905061208d81612067565b92915050565b600080604083850312156120aa576120a9611d1b565b5b60006120b885828601611f68565b92505060206120c98582860161207e565b9150509250929050565b600080fd5b600080fd5b7f4e487b7100000000000000000000000000000000000000000000000000000000600052604160045260246000fd5b61211582611e26565b810181811067ffffffffffffffff82111715612134576121336120dd565b5b80604052505050565b6000612147611d11565b9050612153828261210c565b919050565b600067ffffffffffffffff821115612173576121726120dd565b5b61217c82611e26565b9050602081019050919050565b82818337600083830152505050565b60006121ab6121a684612158565b61213d565b9050828152602081018484840111156121c7576121c66120d8565b5b6121d2848285612189565b509392505050565b600082601f8301126121ef576121ee6120d3565b5b81356121ff848260208601612198565b91505092915050565b6000806000806080858703121561222257612221611d1b565b5b600061223087828801611f68565b945050602061224187828801611f68565b935050604061225287828801611eb3565b925050606085013567ffffffffffffffff81111561227357612272611d20565b5b61227f878288016121da565b91505092959194509250565b600080604083850312156122a2576122a1611d1b565b5b60006122b085828601611f68565b92505060206122c185828601611f68565b9150509250929050565b7f4e487b7100000000000000000000000000000000000000000000000000000000600052602260045260246000fd5b6000600282049050600182168061231257607f821691505b602082108103612325576123246122cb565b5b50919050565b60006060820190506123406000830186611f27565b61234d6020830185612010565b61235a6040830184611f27565b949350505050565b7f4e487b7100000000000000000000000000000000000000000000000000000000600052602160045260246000fd5b7f4e487b7100000000000000000000000000000000000000000000000000000000600052601160045260246000fd5b60006123cb82611e92565b91506123d683611e92565b92508282019050808211156123ee576123ed612391565b5b92915050565b600081905092915050565b7f7b226e616d65223a220000000000000000000000000000000000000000000000600082015250565b60006124356009836123f4565b9150612440826123ff565b600982019050919050565b600061245682611de0565b61246081856123f4565b9350612470818560208601611dfc565b80840191505092915050565b7f222c20226465736372697074696f6e223a22416e204e4654207468617420726560008201527f666c6563747320746865206d6f6f64206f6620746865206f776e65722c20313060208201527f3025206f6e20436861696e21222c200000000000000000000000000000000000604082015250565b60006124fe604f836123f4565b91506125098261247c565b604f82019050919050565b7f2261747472696275746573223a205b7b2274726169745f74797065223a20226d60008201527f6f6f64696e657373222c202276616c7565223a203130307d5d2c2022696d616760208201527f65223a2200000000000000000000000000000000000000000000000000000000604082015250565b60006125966044836123f4565b91506125a182612514565b604482019050919050565b7f227d000000000000000000000000000000000000000000000000000000000000600082015250565b60006125e26002836123f4565b91506125ed826125ac565b600282019050919050565b600061260382612428565b915061260f828561244b565b915061261a826124f1565b915061262582612589565b9150612631828461244b565b915061263c826125d5565b91508190509392505050565b6000612654828561244b565b9150612660828461244b565b91508190509392505050565b600081519050919050565b600082825260208201905092915050565b60006126938261266c565b61269d8185612677565b93506126ad818560208601611dfc565b6126b681611e26565b840191505092915050565b60006080820190506126d66000830187611f27565b6126e36020830186611f27565b6126f06040830185612010565b81810360608301526127028184612688565b905095945050505050565b60008151905061271c81611d51565b92915050565b60006020828403121561273857612737611d1b565b5b60006127468482850161270d565b91505092915050565b7f4e487b7100000000000000000000000000000000000000000000000000000000600052601260045260246000fd5b600061278982611e92565b915061279483611e92565b9250826127a4576127a361274f565b5b828204905092915050565b60006127ba82611e92565b91506127c583611e92565b92508282026127d381611e92565b915082820484148315176127ea576127e9612391565b5b5092915050565b60006040820190506128066000830185611f27565b6128136020830184612010565b939250505056fe4142434445464748494a4b4c4d4e4f505152535455565758595a6162636465666768696a6b6c6d6e6f707172737475767778797a303132333435363738392b2fa2646970667358221220136d430df46ab65d11ff4ed626ba761a9433e5ce8df48d242a3d273435a7ba7b64736f6c63430008140033","linkReferences":{}},"methodIdentifiers":{"approve(address,uint256)":"095ea7b3","balanceOf(address)":"70a08231","flipMood(uint256)":"c1a147a0","getApproved(uint256)":"081812fc","getHappySVG()":"fc842121","getSadSVG()":"5de0682f","getTokenCounter()":"6e02007d","isApprovedForAll(address,address)":"e985e9c5","mintNft()":"c2229fea","name()":"06fdde03","owner()":"8da5cb5b","ownerOf(uint256)":"6352211e","renounceOwnership()":"715018a6","safeTransferFrom(address,address,uint256)":"42842e0e","safeTransferFrom(address,address,uint256,bytes)":"b88d4fde","setApprovalForAll(address,bool)":"a22cb465","supportsInterface(bytes4)":"01ffc9a7","symbol()":"95d89b41","tokenURI(uint256)":"c87b56dd","transferFrom(address,address,uint256)":"23b872dd","transferOwnership(address)":"f2fde38b"},"id":45}